:100000000EC015C07EC013C012C011C010C00FC0FA
:100010000EC00DC00CC00BC00AC009C008C011241E
:100020001FBECFE5D2E0DEBFCDBFA2D0BEC0E8CFBD
:1000300084E088BB80E187BB83EF91E00197F1F713
:1000400000C0000017BA87E59BE10197F1F700C0F7
:10005000000080E187BB96EA9A95F1F700C017BAD5
:1000600086E791E00197F1F700C0000080E187BBCF
:1000700096EA9A95F1F700C017BA8AE693E00197DD
:10008000F1F700C0000080E187BB96EA9A95F1F78E
:1000900000C017BA85E89DE30197F1F700C00000A2
:1000A00080E187BB83EF91E00197F1F700C000008A
:1000B00017BA87E59BE10197F1F700C0000080E1E6
:1000C00087BB96EA9A95F1F700C017BA86E791E0E8
:1000D0000197F1F700C0000080E187BB96EA9A958E
:1000E000F1F700C017BA8AE693E00197F1F700C074
:1000F000000080E187BB96EA9A95F1F700C017BA35
:1001000008951F920F920FB60F9211242F933F93D1
:100110004F935F936F937F938F939F93AF93BF930F
:10012000EF93FF93F89415BE87E893E10197F1F7F9
:1001300000C00000B3990AC084E088BB79DF87EA79
:1001400091E60197F1F700C0000018BA7894FF918A
:10015000EF91BF91AF919F918F917F916F915F913F
:100160004F913F912F910F900FBE0F901F901895B8
:10017000F89481E080BF80E58CBD8AE18DBD8DE083
:100180008BBD17BA80E28BBF88E085BB789480E195
:1001900085BF84E087BB90E295BF85B7806285BF4D
:0E01A000889585B78F7D85BFF7CFF894FFCF88
:00000001FF
